:1000000000000320D1010000350F0000ED0E0000BC
:10001000ED0E0000ED0E0000ED0E0000ED0E0000F4
:10002000ED0E0000ED0E0000ED0E0000350F00009B
:10003000350F0000ED0E000061260000652700006E
:10004000350F0000350F0000350F0000350F0000A0
:10005000350F0000350F0000350F0000350F000090
:10006000350F0000350F0000350F0000350F000080
:10007000350F0000350F0000350F0000350F000070
:10008000350F0000350F0000350F0000350F000060
:10009000350F0000350F0000350F0000350F000050
:1000A000350F0000350F0000350F0000350F000040
:1000B000350F0000350F0000350F0000792E0000CD
:1000C000350F0000552C0000350F0000793100007D
:1000D000350F0000812D0000350F0000350F0000A6
:1000E000350F0000350F0000350F0000350F000000
:1000F000350F0000350F0000350F0000350F0000F0
:10010000350F0000350F0000350F0000350F0000DF
:10011000350F0000B1190000350F0000350F000049
:10012000350F0000350F0000350F0000350F0000BF
:10013000350F0000350F0000350F0000350F0000AF
:10014000350F0000350F0000052A0000350F0000B4
:10015000350F0000350F0000350F0000350F00008F
:10016000350F0000350F0000350F0000350F00007F
:10017000350F0000350F0000350F0000350F00006F
:10018000350F0000350F0000350F0000350F00005F
:10019000350F0000350F0000A52F0000350F0000BF
:1001A000350F0000350F0000350F0000350F00003F
:1001B000350F0000350F0000350F0000350F00002F
:1001C000350F0000350F0000350F0000350F00001F
:1001D0005C4B4CF2205210B51A804DF628121A8052
:1001E00000BF00BF00F0AAFE574B4FF030621A600C
:1001F000564A9A60564ADA60564B4FF470021A60BB
:10020000554B564A1A60564B1A78110703D51A787F
:1002100042F008021A70534B5349AA221A70534AEB
:10022000534B8B4204D252F8040F43F8040BF8E707
:10023000504B514900228B4202D243F8042BFAE77B
:100240004E494F4A002352F8230041F8230001335E
:10025000742BF8D14B4B4C4A802103F8011B93427D
:10026000FBD14A4B454A1A60494B8A221A70A3F5C2
:10027000805324225A70A0221A709A799207FCD5D2
:100280009A79D406FCD4434A937903F00C03082BE3
:10029000FAD1414B60221A7002331A78802AFCD1BD
:1002A0003C4B01221A715D225A719A799006FCD555
:1002B0009979384A4906FBD5384B394919600021EC
:1002C000596020231370937903F00C030C2BFAD19F
:1002D000344B354A1A60354A354C136813F4807331
:1002E00003D123604FF4A8531360324B324A1A6093
:1002F00000225A60072243F8042C304AC3F80C2D20
:1003000062B601F07FF92368DA0705D52C4800F0C2
:10031000C9FE2C4B2C4A1A602C4B1B785B0609D566
:10032000284C294B22689A4204D1254800F0BAFE95
:100330000023236003F00AFC00F006FE02F0AEFA90
:10034000FEE700BF0E20054030800440823F0400DD
:100350000100002B88ED00E0002008E0030000858C
:1003600002D0074000E007400812FF1FB8830000DA
:100370003007FF1F0812FF1F2C17FF1F0002FF1F6F
:100380000000000000E400E064E400E008ED00E0AC
:10039000005006400040064001E007404480044011
:1003A0000000060204800440C010070010D0034083
:1003B00014D0034014E000E01FBF02000000202022
:1003C000310000001CE00340A5C3945A00F0074030
:1003D000FFFFFFFFFFFFFFFFFFFFFFFFFFFFFFFF2D
:1003E000FFFFFFFFFFFFFFFFFFFFFFFFFFFFFFFF1D
:1003F000FFFFFFFFFFFFFFFFFFFFFFFFFFFFFFFF0D
:10040000FFFFFFFFFFFFFFFFFFFFFFFFDEF9FFFF23
:1004100010B5054C237833B9044B13B10448AFF33E
:1004200000800123237010BD0812FF1F0000000090
:10043000B4830000084B10B51BB108490848AFF35E
:1004400000800848036803B910BD074B002BFBD0A0
:10045000BDE81040184700BF000000000C12FF1F4D
:10046000B48300000812FF1F0000000010B40C68E5
:100470000368116820465DF8044B1847012A06D02E
:10048000022A02D10B6800B10360002070470160AE
:1004900000207047036A10B5044623B100F118012B
:1004A000084603229847204610BD00BF08B5012129
:1004B0000D2001F04FF8084C084E094D03E02B6069
:1004C000322001F04DF8236813F0200F4FF0200385
:1004D000F5D120233360F3E790F00F4084F00F4014
:1004E00088F00F40184810B590F82C20174C90F861
:1004F000303054F8322054F8333092F8001293F828
:10050000002200F01BFB124890F82C2090F83030AD
:1005100054F8322054F8333092F8001293F8002245
:1005200000F00CFB0B4890F82C2090F8303054F879
:10053000322054F8333092F8001293F80022BDE8CC
:10054000104000F0FBBA00BF5812FF1F8C7E000065
:100550002412FF1F8C12FF1F00B50B4B1A6E904226
:1005600083B00ED200EB4000800019181A5C8B6833
:10057000496800910548064902F07EF903B05DF82C
:1005800004FB1846FFF792FF3407FF1FA407FF1F65
:100590000C7E0000F8B51E4B1E4D1E682B6E9E4251
:1005A00032D206EB4604A4002F194FF47A72BB68CE
:1005B000285D02FB013121EAE17107EE901AB96072
:1005C000B8EEE70A00F020FF7B68285D002B18DDFD
:1005D000632B09DDFD2163237B6000F075FD304650
:1005E000BDE8F840FFF7B8BF07EE903A9FED0A7AF2
:1005F000F8EEE77A67EE877AFDEEE77A17EE901A63
:10060000EAE700210B46E7E72846FFF74FFF00BF68
:100610002412FF1F3407FF1F0AD7234038B518489C
:10062000184B1C68036E9C4227D204EB44029200D4
:10063000851801EB81016B68805C1944002919DD84
:10064000632909DDFD2163236B6000F03DFD204639
:10065000BDE83840FFF780BF07EE901A9FED0A7A99
:10066000F8EEE77A0B4667EE877AFDEEE77A17EE4B
:10067000901AE9E700210B46E6E7FFF717FF00BFF6
:100680003407FF1F2412FF1F0AD723400A4B1A6E9C
:10069000904210B50DD200EB40020446074913F812
:1006A0002220074802F0E8F82046BDE81040FFF796
:1006B00053BF1846FFF7FAFE3407FF1F287E0000DD
:1006C000A407FF1F2DE9F04F0D490E4A0E480F4DAC
:1006D00091B00B78002B00F083810378DB0740F1A9
:1006E0007F8113682C681B1B0E2B40F27981084C0C
:1006F000084D236E05F114080920002732260DE06D
:10070000B813FF1FD412FF1FD012FF1F1C17FF1FAB
:100710003407FF1FF47D000055F8040F072B00F28B
:100720007481402800F3718103EB4303C2B204F8E3
:1007300023201046002104EB830900F0C5FC226E43
:10074000C9F80870531C4545C9F8046023664FF08A
:100750000009E1D1AE4FAF4BDFF8E8A2DFF8E88245
:10076000049302214846C7F82C90CDF81CA0CDF880
:10077000188000F0EFFE0123184602213B6300F0D1
:10078000E9FE4946384600F0A5F9A34B19681A68F6
:10079000C1F30041C2F34042384600F0C9F9069B5C
:1007A000CDF82890002B00F02381022208A804A98C
:1007B0009847069B079ACDF838900A930B92002B26
:1007C00000F016810CAD08A9284602229847DDF8F2
:1007D0002CE00A9B914AD7F820903B6295E80300F1
:1007E00002AE86E8030092E8030085E8030096E87D
:1007F00003007B6ACDF8389082E803000F93C7F8B6
:1008000024E0B9F1000F03D0032229462846C84747
:100810000A9B1BB108A9084603229847069B1BB1F7
:1008200004A90846032298477D4F7E4B04934FF05E
:10083000020949464846CDF81CA0CDF81880C7F8F3
:100840002C9000F087FE0323184649463B6300F0D6
:1008500081FE3846002100F03DF9734B734A116860
:100860001A6801F00101C2F30032384600F060F965
:10087000069B4FF0000BCDF828B0002B00F0C18094
:100880004A4608A804A99847069B079ACDF838B0AD
:100890000A930B92002B00F0B4804A4608A9284620
:1008A0009847DDF82CE00A9B614AD7F820903B621C
:1008B00095E8030086E8030092E8030085E803005A
:1008C00096E803007B6ACDF8389082E803000F9326
:1008D000C7F824E0B9F1000F03D0032229462846C7
:1008E000C8470A9B1BB108A9084603229847069BE4
:1008F0001BB104A90846032298474E4F4E4A049262
:10090000042318460221CDF81880FB62CDF81CA004
:1009100000F020FE0523184602213B6300F01AFE7A
:100920003846002100F0D6F8404B3F4A11681A685B
:10093000C1F34031C2F3C012384600F0F9F8069B0B
:100940004FF00008CDF82880002B56D0022208A8CE
:1009500004A99847069B079ACDF838800A930B9212
:10096000002B4AD0022208A928469847DDF82CE03F
:100970000A9A324BD7F820803A6295E8030086E85D
:10098000030093E8030085E8030096E803007A6A11
:10099000CDF8388083E803000F92C7F824E0B8F15F
:1009A000000F03D0032229462846C0470A9B1BB1EB
:1009B00008A9084603229847069B1BB104A90846CC
:1009C00003229847226E124800231946013A00F08C
:1009D000A1F800210846FFF759FE11B0BDE8F08FDD
:1009E00013680193019BB3F57A7FFFF472AE7EE644
:1009F000DDF83CE000230CADECE6DDF83CE0002245
:100A0000B7E7DDF83CE000234EE70D48FFF74EFD69
:100A10002412FF1F8D06000050F00F403C12FF1FF4
:100A20005812FF1F9505000010F00F40D0F00F4046
:100A30007012FF1F8C12FF1F1D060000A412FF1F63
:100A40003407FF1F6D0400007D0400002DE9F8430A
:100A50001A4BDFF87890DFF87880194D9D620024FA
:100A60004FF000476FF000464A4641461C601C7339
:100A70001C611C751C625F609E60184603F054F890
:100A8000104B4A46414683E890009E601C731C61EF
:100A90001C751C629D62184603F046F80A4B1C75D3
:100AA0004A464146184683E890009E601C731C61CC
:100AB0001C629D62BDE8F84303F036B85812FF1F70
:100AC000387E00008C12FF1F2412FF1F3007FF1F0B
:100AD00095040000012911D002290AD021B10A4B46
:100AE0008362002303617047084B83620323036121
:100AF0007047074B8362002303617047034B836297
:100B000000230361704700BF387E0000707E000044
:100B1000547E0000914206DB4FF000426FF000432C
:100B2000426083607047416082600373704700BF1A
:100B3000036942EA41014B400375704730B50369D0
:100B4000057D846A42EA4102534004EB850489B082
:100B5000E35C03F00F0203F0F003102B02751BD0CF
:100B6000202B03D00024204609B030BD0368426822
:100B700093423ADD026A013B03604AB108AA4FF092
:100B8000FF3142F80C1D04931830C36804A998473C
:100B90000124204609B030BD03688268934213DB0C
:100BA000047B002C33D0026A43680360002AEFD034
:100BB00008AA012142F8141D02931830C36802A943
:100BC0009847204609B030BD026A01330360002A0D
:100BD000DED008AA0124009342F81C4D436A6946FE
:100BE00018309847204609B030BD047B7CB1026ABA
:100BF00083680360002ACBD008AA4FF0FF3142F887
:100C0000041D06931830C36806A99847ABE7026035
:100C1000204609B030BD00BF38B50F4D286878B107
:100C200043880288C118013393420C7A02D2438070
:100C3000204638BD00F0BCFD002320462B6038BDA7
:100C4000064B1B782BB1032000F0D8FD286000284C
:100C5000E6D14FF0FF3038BDCC12FF1FB813FF1F95
:100C600010B5094C206818B143881844007A10BDAB
:100C7000064B1B782BB1032000F0C0FD206000283C
:100C8000F2D14FF0FF3010BDCC12FF1FB813FF1F81
:100C9000044B054A1B6890881BB11A885B88D31ADD
:100CA00018447047CC12FF1F2017FF1F0B4B1B78F7
:100CB0009BB110B50A4C206848B100F079FD0023C3
:100CC0000320236000F09AFD30B100F071FD032095
:100CD00000F094FD0028F8D110BD7047B813FF1F35
:100CE000CC12FF1F2DE9F04FDFF8F89083B00122FE
:100CF00089F80020019169B3DFF8EC80354F019E3F
:100D00008346D8F80000B0B3334D4488C4F14001A5
:100D1000B14228BF314604EB010E00221FFA8EFEBD
:100D20002A70761AA0F802E000F1080251B1013CE5
:100D3000224459441BF8014B02F8014F8B45F9D16D
:100D4000B0F802E0BEF13F0F0BD8244A0521117024
:100D5000002ED6D10198002389F8003003B0BDE8F9
:100D6000F08F402202800146042000F0DFFD0022C7
:100D7000C8F80020E9E73A7822B3194C164D4FF035
:100D8000010A07E0013C16D02A78A2B901F0F2FC72
:100D90003A78BAB1042000F04FFD0728F2D889F85C
:100DA00000A000F0E5FCC8F800000028ADD10D4B14
:100DB000013C1870E8D101234FF0FF302B7003B0D5
:100DC000BDE8F08F00234FF0FF3089F8003003B00A
:100DD000BDE8F08FB813FF1FC812FF1FC012FF1F1E
:100DE00021480100C112FF1FC412FF1F00B583B0CC
:100DF00002AB012103F8010D1846FFF773FF03B0A2
:100E00005DF804FB38B50E4D0E4C286801232370A5
:100E100028B1408800232370C0F1400038BD0A4B40
:100E20001B7813B90020207038BD042000F004FDA9
:100E30000728F7D800F09CFC28600028E9D1F1E7EA
:100E4000C412FF1FC112FF1FB813FF1FF8B5114BCB
:100E50001B788BB1104E114D346801272F7064B18F
:100E60000F4A63880027177021462380042000F072
:100E70005DFD376000232B70F8BD00F079FC084B56
:100E800028B1014604201C7000F050FDF2E71F70ED
:100E9000F0E700BFB813FF1FC412FF1FC112FF1FEE
:100EA000C012FF1F38B50E4B1B7873B90D4C21686B
:100EB00061B103F0FF054B880B80042000F036FD84
:100EC000256038BD084B01221A7038BD00F050FC77
:100ED0000028F7D00146BDE83840042000F026BDC8
:100EE000C112FF1FC412FF1FC012FF1F08B5104C14
:100EF00008E0236859050DD423681A050FD4236828
:100F0000DB0411D423685803F3D500F051FD2368A6
:100F10005905F1D501F0B0FF23681A05EFD501F0AE
:100F200099FE2368DB04EDD502F026F9EAE700BF5D
:100F30003480044008B5FFF7D9FF00BF014B1022F1
:100F40001A80704700200540704700BF094908B566
:100F50000B6830B16A461844A2F50052904202D2A2
:100F60000860184608BD02F0EBFD0C2303604FF04B
:100F7000FF3008BD9807FF1F084A1378802B01D067
:100F8000002070470649074B074808600021197088
:100F90001378802BFCD00120704700BF03E007408E
:100FA0004480044001E0074000002822094A1378E9
:100FB000012B01D00020704703F1804303F5FC238F
:100FC000602119701378802BFCD1034B034A1A60FF
:100FD0000120704703E007404480044000000602FF
:100FE00010B4114B53F8302092F8804234B10123F1
:100FF00079B182F880305DF8044B704703EBC00391
:101000005B681A6851B922F002021A605DF8044B5D
:10101000704782F800315DF8044B704742F00302DC
:101020001A605DF8044B70478C7E00001C4A02EB8E
:10103000C00301295B6811D004291BD052F830008D
:10104000002280F8802229B1022920D0032922D051
:101050001A6070474FF480721A60704752F830007F
:101060004FF4A27280F880121A601A6822F02002EF
:101070001A60704752F830104FF4A272012081F8C4
:1010800080021A601A6842F020021A60704740F22B
:1010900003121A6070474FF481721A60704700BFE4
:1010A0008C7E000030B4054B054D064C002210210B
:1010B0001A602A602060196030BC704714D0034069
:1010C00004D0034000D0034038B5A0F14203012B07
:1010D000044624D900297ADD994B1B78012505FAAD
:1010E00003F28A4202D83F282CD938BDC21E012AF9
:1010F00030D9A0F11D02012A78D90E285BD9A4F1BC
:101100002302032A5CD9A4F11002012A94BF8D4A5C
:101110008D4A126802FB011222FA03F320E0884B89
:101120001B780B2B0AD90C2B1CBF0C3B1941422CF2
:10113000084657D0BDE8384001F05EBDC3F10C034E
:101140009940F4E72946FFF74BFF2946BDE83840B0
:10115000FFF76CBF7D4A126802FB011222FA03F30B
:10116000A21E242A00F2E380DFE812F0DA00D300A6
:10117000CC00C500BE00B700B000A900A200E1008D
:10118000E100E1009B00E10094008D00E100E1003E
:1011900086007F0078007100E100E100E100E100DD
:1011A000E1006A006300E100E100E100E1005C00B1
:1011B00055004E00470044F28412C240D2079ED52B
:1011C000634A126802FB011222FA03F3C8E73F28C0
:1011D0008BD80021FFF704FF20460121BDE83840ED
:1011E000FFF724BFBDE8384001F0E8BC594A126857
:1011F00002FB011222FA03F3B2E75749574A0B6088
:101200004FF45173136038BD5549564A0B604FF483
:101210005173136038BD5449544A0B604FF45173F5
:10122000136038BD5249534A0B604FF45173136039
:1012300038BD5149514A0B604FF45173136038BDAA
:101240004F49504A0B604FF45173136038BD4E49FB
:101250004E4A0B6040F24443136038BD4C494D4A3E
:101260000B6040F24443136038BD4B494B4A0B605E
:1012700040F24443136038BD49494A4A0B6040F28A
:101280004443136038BD4849484A0B6040F2446308
:10129000136038BD4649474A0B6040F2446313600F
:1012A00038BD4549454A0B6040F24443136038BDA0
:1012B0004349444A0B6040F24443136038BD4249FD
:1012C000424A0B6040F24443136038BD4049414AF2
:1012D0000B6040F24443136038BD3F493F4A0B6006
:1012E00040F24443136038BD3D493E4A0B6040F232
:1012F0004443136038BD3C493C4A0B6040F24443D0
:10130000136038BD3A493B4A0B604FF45173136088
:1013100038BD3949394A0B604FF45173136038BDF9
:101320003749384A0B6040F24443136038BD3F2CC4
:101330003FF6DBAE7F29D4BF00210121204649E7DB
:101340009C07FF1F08900C40088003400890034052
:1013500008900B4008800B4048900B402CB0044094
:1013600040900B4028B0044038900B4024B004401B
:1013700030900B4020B0044018800B404CA004403B
:1013800010800B4048A004401880034008B004407F
:101390001080034004B004404080034018C0044063
:1013A0003880034014C0044018900C4004A004404E
:1013B00010900C4000A0044018900B4004C0044062
:1013C0002880034010B00440208003400CB004404B
:1013D00028900B400CC0044020900B4008C00440F3
:1013E0003080034010C00440488003401CC00440CB
:1013F0001890034034900440109003403090044013
:1014000010900B4000C00440A0F11001C9B20129A6
:1014100070B45BD9DFED3B7A3B4AB4EEE70AF1EEFC
:1014200010FA47F6122346BF1A4602250125DFEDC2
:10143000376A002322FA03F407EE904AF8EEE77ABF
:1014400027EEA67AB4EEC70AF1EE10FA07DA0133F6
:10145000072BEFD1D20907EE902AF8EEE77A87EE54
:10146000807A4FF6FF74C21EF6EE007A77EE677A46
:10147000FCEEE77A17EE906AA64228BF2646012ABC
:10148000344637D917280ED9A0F11D02012A35D9C3
:101490000E281ED92338032820D9012914D81C4A24
:1014A0001C4E1D481DE01D4AC24002F0010282F0A0
:1014B0000106002AE8D01A4A1A481B49166043EA76
:1014C000C50306600C60136070BC7047174A0125A5
:1014D000ADE744F28412C240D207DBD5144A154E60
:1014E000154843EAC50300211160316004601360B0
:1014F00070BC7047114A124E1248F2E7124A134E5E
:101500001348EEE7C0E1E440008793030000803712
:1015100000900C4004900C4008900C406006F000D5
:101520000080034004800340088003400024F4004E
:1015300000900B4004900B4008900B40009003403B
:10154000049003400890034000800B4004800B404F
:1015500008800B403F2801D8FFF768BD704700BFE7
:101560002DE9F843054672B6224F234B234A1B68E8
:101570003C68126862B6520102D5322B88BF013432
:10158000B5B3C3F52F3303F21F331D4EDFF8689058
:10159000DFF868809B084FF47A72A6FB031302FB06
:1015A00004F404EB930472B6D9F800103A68D8F842
:1015B00000E062B6C1F52F3303F21F339B08A6FB90
:1015C00003031EF0806FC4EB93034FF47A7002D0D4
:1015D000322988BF013200FB0233B3F57A7F04D38E
:1015E000013D05D004F57A74DDE701F0C3F8DAE7D0
:1015F000BDE8F883D412FF1F18E000E004ED00E01E
:10160000176CC116F8B54E4B4E48DFF85CC14E4C16
:101610004E49DFF858E14E4E4E4D4F4F4FF00062AD
:101620001A604FF080521A604FF000521A604FF06B
:1016300080421A604FF000421A60002202602823A4
:101640004EF6FF70CCF80000CEF8003023600EF5A7
:10165000012E0B6033602B6006F500263B6005F51C
:101660000025A36207F500278B6204F5012401F52C
:10167000012106F6E87605F6E87507F57F67103173
:101680000EF1100E203433602B60CEF800303B603A
:101690000B602360314CBB618B6109212160A7F590
:1016A000002704F58054203F08343A602060BB6076
:1016B000E36047F8041C04F5FD2407F5FE27043712
:1016C00004F2FC7422603860A360FB6044F8041CE0
:1016D000083404F6FC74C7F8FC2F2060A4F5E1245C
:1016E000A4F2DC7433602B60C7F8F81F21681C4833
:1016F00041F40071216001681A4C0EF57F4E0EF125
:10170000E80E07F5883706F5803605F5803541F097
:1017100000710160CEF8002047F6FF7108223960A1
:1017200033602B60226001F0D9F91920FFF718FF10
:1017300000F0A6FE40F21310BDE8F840FFF710BF1E
:1017400004E100E004800340148003401C80034057
:10175000248003402C8003403480034000800340F9
:101760000480044000900C40088003400C8003403B
:1017700072B60D480268B2FA82F30B2B10DC4FF000
:101780000041D94022EA0102026062B6074803EB39
:10179000C303DB00C2180021C150104651607047DE
:1017A00062B60020704700BFA007FF1FD003FF1FD5
:1017B0000D4B0E4AC31AA2FB03231B090B2B0CD89B
:1017C0000B4A127852B972B60A484FF000410268CB
:1017D00021FA03F31A43026062B67047064A127890
:1017E000002AF0D000F03EB8D003FF1F398EE33856
:1017F000AD13FF1FA007FF1FB813FF1F431E032BCE
:1018000014D872B60A4951F8230068B170B4094C73
:10181000058834F81320466841F82360521B24F8E9
:10182000132062B670BC704762B6704700207047E4
:101830003013FF1F2017FF1F013803280BD872B683
:10184000074B53F8203043B100205B680130002B78
:10185000FBD162B67047002070471846F9E700BF19
:101860008413FF1F30B472B62B4A13781D0706D5B8
:101870002A4B196A002936D0996A002941D0537839
:101880001C0706D5254B196C00293ED0996C002900
:1018900039D09378190705D5204B196E002936D019
:1018A000996E89B1D3781B0707D51C4BD3F88020DC
:1018B0007AB3D3F8882011213AB162B6184B0022CE
:1018C0001A7030BCFFF774BF0D21154C154D2278EE
:1018D00043F8315003EBC1030830013A58602270DD
:1018E00062B630BC704704220D4C0F4D217843F88E
:1018F000325003EBC20308304A1E5860227062B6B1
:10190000EFE70521E1E70921DFE70822ECE70C22F8
:10191000EAE71022E8E700BFB48000000000FF1FE4
:10192000AD13FF1FC800400088004000431E032B7A
:101930001DD81B4A400140F0100030B4104472B66C
:10194000184CE25C032A1BD8DFE802F002121517DC
:1019500003220D88E25410F0080F14BFC823882317
:1019600043EA054308310360416062B630BC70470A
:1019700008300222EDE70522EBE708300422E8E711
:10198000094A52F8230038B1084A52F8230041604E
:1019900042F8231062B6E9E742F82310034AF7E75A
:1019A0000000FF1FBC13FF1F8413FF1F9413FF1FB2
:1019B0002DE9F04FDFF80CB3DFF80CA387B044E05B
:1019C000AB4F4FEA930807EBC809013ED9F8042052
:1019D00003F00803F6B2A2F1080003F0FF04002BA5
:1019E00040F0028157F838301B0C99B222F8081CDD
:1019F000002B00F0F0809F4B22F8064C42F8044C7C
:101A000053F82620002A00F0C5829B4D55F8263059
:101A100058609A4C45F8260034F81630194424F8DA
:101A20001610FFF7A5FE002800F0AD82944A954BF2
:101A300019F0080F00F1080018BF1346C9F8040098
:101A400047F8383008238BF800309BF80040E4B2A8
:101A500061071AD58C4B1B78A3B18C490A7802F028
:101A6000FF0322B1013BDBB20B7003B900BE884912
:101A70000A7802F0FF032AB1013BDBB20B70002BA6
:101A800000F0578204238BF8003004F0080303F0C1
:101A9000FF02002B00F0CC809AF80030DBB21E0968
:101AA0008ED19C08DFF8C89159F8342009EBC401A5
:101AB000C2F38302013A49680C2A00F28880DFE809
:101AC00002F07C7C86868686868647868686070028
:101AD0000868704D4A68704F704E286081B240F2BD
:101AE0008160674B6A604FF0010E0022814249F825
:101AF00034303A60C9F81020C9F8182086F800E0A0
:101B00005B4C00F2E380B1F5D06F80F04683B1F515
:101B1000817F00F0FC8200F28D82802900F07783C3
:101B2000822940F0FA82A98801F07F01042900F29D
:101B3000F4825B485B4C8900084422706270027832
:101B4000930740F1588484F800E04FF0020E42E31E
:101B5000514F3A6832B3544B504E54491888347838
:101B60000D784028864645F0020828BF4FF0400E09
:101B7000002C84F001043470CEEB00000CBF8824EC
:101B8000C82409EBC80680B285F0010544EA0E447A
:101B90007260188049F8384072440D70002800F0D7
:101BA00045813A603B4B1A88B2F5A06F0FD10021F6
:101BB0009A7859703E4B1A7009E0364A108842F202
:101BC0002102904200F037812D4A49F83420394AE9
:101BD0000123137036E72A4A2A4B19F0080F18BF61
:101BE000134647F838302DE7FFF7E2FD324A334914
:101BF00052F82630002B00F0D18158688C5D42F8F5
:101C0000260003F10802C9F80420032C05D8DFE8F8
:101C100004F02C02292602228A551A8819F0080F8E
:101C20000CBF8823C82343EA024347F8383009E74A
:101C3000E00700F18181210600F1F281A20706D5BB
:101C40001F4A204913780220DBB213700870E306A4
:101C500002D51C4B10221A7007B0BDE8F08F042289
:101C60008A55DAE705228A55D7E703228A55D4E751
:101C70000000FF1F3013FF1FDC12FF1F2017FF1F84
:101C8000C800400088004000B813FF1F4113FF1F29
:101C9000C012FF1FA413FF1FD812FF1F4013FF1F06
:101CA000C0200740B013FF1FEC12FF1FAC13FF1F33
:101CB00098200740942007408413FF1FBC13FF1F88
:101CC00088200740802007409020074042F22100F2
:101CD000814200F02A8100F2D880B1F5086F00F04F
:101CE0007682B1F5106F40F01882226AB349A87865
:101CF0000870120600F13A83D9F82820B04913067B
:101D000000F10C83D9F83020AD49150600F10183AC
:101D1000D9F83820AA49140600F1F682D9F84020F3
:101D2000A749100600F14A83D9F84820A4491206B1
:101D300000F13F83D9F85020A149130600F1348304
:101D4000D9F858209E49150600F12983D9F860205A
:101D50009B49140600F11E83D9F8682098491006A3
:101D600000F11383D9F870209549120600F1088319
:101D7000D9F878209249130600F1FD82D9F8802025
:101D80008F49150600F13183D9F888208C49140653
:101D900000F12583D9F890208949100600F11983B4
:101DA000D9F898208649120600F10D838548864AA5
:101DB000864901908648874D874C049700230596F5
:101DC000029580460F4616461D460394306828B19A
:101DD0004468FFF7EDFC2046002CF9D10023336066
:101DE000029B38681A46002342F8253028B144681F
:101DF000FFF7DEFC2046002CF9D100223A60019A60
:101E000098F800301146002241F8042B039A019102
:101E1000023B4FF0000122F81510032B00F22B813A
:101E2000DFE813F07001250170012501BEF1400FBC
:101E300018BF0022B5E6694A0D78487815705070D1
:101E40008D78C8789570D07010680D7915718628D6
:101E50004D7989795571917100F09B816049614E8E
:101E60000A78307882F00105002842F002020D70F5
:101E70000CBF8821C82149F8321009EBC20280F05A
:101E800001000021307051609EE642F22120814223
:101E900040F0CB81544B554C5549A8781D682560BE
:101EA000CDF804E008700020029080468446044685
:101EB0004B490D7845F0020E09EBCE030393019BCD
:101EC000002B039B5C600CBF8824C82444EA0803F1
:101ED00085F0010449F83E3032700C70DFF8E0E024
:101EE000404BDFF8FC80002840F01E81BCF1400F21
:101EF0001BD144F0020C09EBCC03029CDFF8C0E0DC
:101F00005C60002A40F02681020442F088029DF8BD
:101F100004304EF83C20044433700D7023464028B2
:101F200003D10020334A3B601080334A01231370F1
:101F30004DE6FEF7B7FFA5E5214B2F4828491A616A
:101F40004FF0020E80F800E02C4F0A702C49196007
:101F500099602C4E2C4D2D4C9A610D213970FF212A
:101F60003170DFF8B8E029702270294D294A8EF8C7
:101F700000109F27012406F8047C5D600470DA607D
:101F800007B0BDE8F08F244A47F8380013780133D2
:101F9000137057E543F826000E4D3AE58B5D032B91
:101FA00000F2F08001A252F823F000BF451A0000B1
:101FB000451A00006920000063200000B813FF1FCD
:101FC0000000FF1F9413FF1F3013FF1F8413FF1F18
:101FD000BC13FF1FDC12FF1F2017FF1F1417FF1F6A
:101FE000AC13FF1F4013FF1FD412FF1F1C17FF1F4E
:101FF000D012FF1FEC12FF1F94200740C0200740A3
:102000008800400088200740802007409820074033
:10201000F012FF1F4413FF1FAD13FF1F8C2007405A
:10202000C149C24B80220D2008701A70A2077FF5AB
:102030000EAE05E640F20232914240F0EE80A988F1
:1020400001F07F01042968D86A88002A65D1B64862
:10205000CDF804E089000844017841F002010170E4
:1020600021E701238B55EDE400238B55EAE44FF083
:10207000010388F800300135042D06F1040607F14C
:10208000040708F101087FF4A1AEA94CA94B2278FE
:10209000A94D049F059E002129701A70130700F1B5
:1020A00005816278A549DFF8A0820A7010074FF019
:1020B0000001C9F83010C9F8381000F1E080A049DB
:1020C000A2780A700021C9F85010C9F858101107F9
:1020D000DFF8748200F10181E2789A499A4C0A7023
:1020E00000211207C9F87010C9F8781000F1B0800B
:1020F00033780193002183F00102C9F89010C9F8E8
:102100009810D0E64FF0000388F80030B3E7A988B4
:1021100001F07F01042940F28D80834A0F23137060
:102120008A4A0123137052E540287FF6E2AE44F05C
:1021300002040EEBC401029E4E60BAB19DF8041079
:10214000834A19703346403888F8005040334EF8BF
:102150003420E7E69DF8043033700204029B0D70D2
:1021600042F0C80203444EF83C20D8E69DF8041023
:102170001970029B774A88F80050403840334EF877
:102180003420CFE619F0080F0CBF022303238B5530
:1021900058E4714A0F21117060E6704A5468002CAF
:1021A000BBD06888B5F804E003E00C325468002C1A
:1021B000B3D013888342F8D153887345F5D1000A10
:1021C00003280CBF94F800E0B2F808E003E0644A8A
:1021D000644C12782270E888704580F03F81624933
:1021E0000D784028844645F0020E28BF4FF0400C81
:1021F00004EB0C0309EBCE02029301235460CCEBF9
:1022000000004FEA0C4800220193C8245EE6554CBA
:102210004FF0020E22706270DDE7B1F5A06F7FF41F
:102220007CAF0123002201933DE642F2213291422C
:10223000F7D072E76A88002A7FF46FAF3A48CDF88A
:1022400004E089000844017821F0020101702AE6C7
:10225000FFF78EFA002800F0EF8008303D4AC4F8FE
:102260008400C4F88020FFF783FA002800F0DE80A5
:102270000830374AC9F88C00C9F8882038E7FFF7DA
:1022800077FA002800F0C0800830324AC8F84400CD
:10229000C8F84020FFF76CFA002800F0AF80083043
:1022A0002B4AC9F84C00C9F8482008E7FFF760FA44
:1022B000002800F0CD800830264AC9F82400C9F86B
:1022C0002020FFF755FA002800F0BC800830204A93
:1022D000C9F82C00C9F82820E3E6FFF749FA0028DE
:1022E00000F09E8008301B4AC8F86400C8F86020DF
:1022F000FFF73EFA002800F08D800830144AC9F834
:102300006C00C9F86820E7E6C86B0838FFF750FA98
:1023100004E5486B0838FFF74BFAF9E4C86A083857
:10232000FFF746FAEEE400BFC020074080200740D8
:10233000B4800000C4200740AD13FF1FC820074031
:10234000CC200740D02007400000FF1F942007400A
:10235000C8004000880040004113FF1FB880000003
:10236000B813FF1FB013FF1FAC13FF1F606A0838BC
:10237000FFF71EFAC0E4C86F0838FFF719FAFDE44A
:10238000486F0838FFF714FAF2E4C86E0838FFF710
:102390000FFAE7E4486E0838FFF70AFADCE4C86D84
:1023A0000838FFF705FAD1E4486D0838FFF700FA5E
:1023B000C6E4C86C0838FFF7FBF9BBE4486C083882
:1023C000FFF7F6F9B0E4D1F89C000838FFF7F0F910
:1023D000ECE4D1F894000838FFF7EAF9E0E4D1F82A
:1023E0008C000838FFF7E4F9D4E4D1F88400083809
:1023F000FFF7DEF9C8E44FF0020EECE62A78C9F8E0
:10240000480001322A705AE62A78C8F840000132A2
:102410002A703FE72A78C9F8680001322A705BE623
:102420002A78C8F8600001322A7061E72A78C9F872
:10243000880001322A705BE62A78C4F880000132F5
:102440002A7010E72A78C9F8280001322A7028E695
:102450002A78C9F8200001322A7032E7BEF1400F15
:10246000F44628BF4FF0400C04EB0C030293012309
:10247000CCEB0E004FEA0C480022019318E500BF98
:102480002DE9F04100F000FE314C324B3248DFF8CC
:10249000E480324EDFF8E0C0314F324DDFF8DCE04F
:1024A00000221A605A609A60DA601A615A619A6171
:1024B000DA611A625A629A62DA621A635A639A633A
:1024C000DA631A645A649A64DA641A655A659A651A
:1024D000DA651A665A669A66DA661A675A679A67FA
:1024E000DA67C3F880202168C3F8842041F4802192
:1024F0002160016841F040710160032188F80010FB
:10250000A020C3F307218CF8000004F528343170B3
:10251000C3F30740144938701B0E2B70CC34FF23D3
:102520008EF80030114D0CF8B83C11480B700123A7
:1025300006F8083C227070264FF40014102207F8A9
:102540002C3C2E70046081F8F820BDE8F08100BFBB
:10255000348004400000FF1F00D800409C2007404A
:10256000B0200740B42007401020074035E400E0C9
:1025700004E100E04421074040210740802007405B
:1025800010B4EFF3108272B6437F33B9017F012993
:1025900008D0032910D00123437702B962B65DF851
:1025A000044B7047114C2168A1B1114943610B687C
:1025B000836108605861EEE70E4C216881B10E49D5
:1025C00043610B688361086058610C4B4FF0805188
:1025D0001960E0E7064B4161816120601860DAE72D
:1025E000054B4161816120601860EEE7D013FF1F49
:1025F000CC13FF1FC013FF1FC413FF1F04ED00E027
:1026000010B4047F4160022CC26003D05DF8044B1B
:10261000FFF7B6BF83685DF8044B184770B5EFF35A
:10262000108272B60C4C206880B10C4E00254369B4
:10263000236073B19D6102B962B64577836898479C
:10264000EFF3108272B620680028F0D102B962B6AA
:1026500070BD3360EFE700BFC013FF1FC413FF1F3F
:10266000FFF7DCBF184A30B41468002C27D0036889
:1026700021688B420ED2CB1A00218460C160236096
:10268000E06010600223037530BC704711688B4214
:10269000144608D3A2685B1A0360002AF6D1826050
:1026A000C460A060EEE7D268C2608460E060C56884
:1026B000CB1A0222A8602360027530BC7047846088
:1026C000C4601060DEE700BFC813FF1FF8B5224EDC
:1026D00034682CB32368002B3AD1204F1D4604E008
:1026E0003468ECB12368002B32D1A36803B1DD60FC
:1026F00020693360036825751B68BB4221D1037FC5
:102700004560022BC46020D0FFF73AFF6368002BBE
:10271000E6D023602046FFF7A5FF3468002CE1D106
:10272000EFF3108372B60E4A00211068116003B9EE
:1027300062B628B18468FFF795FF20460028F9D1DA
:10274000F8BD224600219847E0E783689847DDE717
:10275000013B2360E4E700BFC813FF1F0126000010
:10276000D813FF1F024A136801331360FFF7AEBF8F
:10277000D412FF1F38B52C4C237803B138BD012388
:102780002370FEF785FA002842D100F065FB00288F
:102790003BD100F04FFA002834D100F0DDFC70BBD3
:1027A00000F0DEFA40BB00F01DF910BB00F0EAFBC0
:1027B000E0B900232370EFF30583002BDED1EFF3A4
:1027C000108172B6194B186828B3194C227812BBC5
:1027D00045691D60012323700DB3AA6101B962B67A
:1027E00000254577836898472570C7E700F05EF8B5
:1027F000DFE700F021F8D9E700F04EF8D3E700F06A
:1028000029FDCDE700F046F8C7E700F021FDC0E75D
:1028100000F028F8B9E70029B0D162B638BD054B01
:102820001D600029DCD1DAE7DC13FF1FD013FF1F86
:10283000D413FF1FCC13FF1F704700BFFEF736BA3B
:10284000FEF70EBAFEF7E8B9FEF722BAFEF7FEBAB7
:10285000FEF7D8BA08461146FEF744BA0846FEF716
:10286000C5BA00BF704700BF10B5036814465B6867
:102870009847204610BD00BF0EB400B582B003AA31
:1028800052F8041B019201F0AFFF02B05DF804EBB7
:1028900003B07047704700BF704700BF08B5FDF731
:1028A00011FFFDF71FFEFFF765FFFAE7704700BF56
:1028B000844641EA000313F003036DD1403A41D34B
:1028C00051F8043B40F8043B51F8043B40F8043B0A
:1028D00051F8043B40F8043B51F8043B40F8043BFA
:1028E00051F8043B40F8043B51F8043B40F8043BEA
:1028F00051F8043B40F8043B51F8043B40F8043BDA
:1029000051F8043B40F8043B51F8043B40F8043BC9
:1029100051F8043B40F8043B51F8043B40F8043BB9
:1029200051F8043B40F8043B51F8043B40F8043BA9
:1029300051F8043B40F8043B51F8043B40F8043B99
:10294000403ABDD2303211D351F8043B40F8043B39
:1029500051F8043B40F8043B51F8043B40F8043B79
:1029600051F8043B40F8043B103AEDD20C3205D349
:1029700051F8043B40F8043B043AF9D2043208D041
:10298000D2071CBF11F8013B00F8013B01D30B88B3
:1029900003806046704700BF082A13D38B078DD091
:1029A00010F003038AD0C3F10403D21ADB071CBF63
:1029B00011F8013B00F8013B80D331F8023B20F8CD
:1029C000023B7BE7043AD9D3013A11F8013B00F806
:1029D000013BF9D20B7803704B7843708B7883708E
:1029E00060467047054A064B10781B78C0B2DBB2D0
:1029F000984238BF4030C01A704700BFE413FF1F31
:102A0000E513FF1F30B42B4B1A7994061FD52A48C3
:102A1000DA790378294901333F2B0978C8BF0023AD
:102A20008B42D2B203D0264CD9B2E2540170254A6F
:102A3000116861B1244A1278D2B2934236BFC2F112
:102A400040029B1A9B18272BC4BF01230B70194A05
:102A5000D378DBB2180611D45A060DD5154B1B7965
:102A60005B0609D5194B1A491B6800220A7003B18D
:102A70001A70104B2C22DA7030BC7047117909069D
:102A8000EAD5144910480C780178C9B28C420DD0AF
:102A90004A1C272A84BF00210A460F4D054C98BFC7
:102AA000D1B2AA5CD2B2E2710170D5E76C21D170CB
:102AB000D2E700BF00A00E40E413FF1FE513FF1F85
:102AC0001014FF1FE013FF1F5114FF1F5414FF1FAA
:102AD0005014FF1F5814FF1FE813FF1F30B429487C
:102AE000294A2A4B2A4D6024E121047011701B7879
:102AF000284C082B30D00A2B2748284937D00C2BDC
:102B00000CBF35225D2212232A60236002600B6015
:102B1000234B24491B78244ABBB101230B6013606B
:102B2000224B23491B78234A012B26D9042B0FD98A
:102B3000082B1ED9102B94BF862387230B601360AC
:102B40001D4B01221A7030BC70470B601360E7E721
:102B500084230B601360F3E700F58E200F490830E3
:102B6000212213232A60236002600B60D0E7392200
:102B7000F7E785230B601360E2E780230B601360A7
:102B8000DEE700BF0040074001400740B407FF1FD9
:102B900008B003400CB0034008B00B400CB00B4031
:102BA0005A14FF1F20B0034020B00B40B507FF1F91
:102BB00024B0034024B00B405914FF1F0A4A0B49AC
:102BC000136843F4805313600B7843B9084BC02259
:102BD0001A70084B80F30C0000B218807047044B49
:102BE00080221A70F5E700BF2C8004405A14FF1FA2
:102BF00021C00C4000C00C400A4A0B49136843F442
:102C0000005313600B7843B9084BC0221A70084B6D
:102C100080F30C0000B218807047044B80221A70B9
:102C2000F5E700BF2C8004405A14FF1F21D00C4050
:102C300000D00C40054A064B10781B78C0B2DBB2BE
:102C4000984238BF4030C01A704700BFCC14FF1FF5
:102C50006114FF1FF0B4384B1A7912F0300F2CD0EA
:102C600072B6997D01F0FF0200293DD062B6334F64
:102C7000334938780D78334E1C46C0B2EDB2431C50
:102C8000402BE17928BF0023AB4202F1FF32C9B2E9
:102C90001CBFF154184612F0FF02F0D12A4B1B68FA
:102CA000C2B23A704BB1A84236BFC5F14005401BD5
:102CB00040192728C4BF01221A701F49CA78D2B20E
:102CC000150616D452060DD51B4B1B795B0609D58C
:102CD0001E4B1F491B6800220A7003B11A70164B65
:102CE0003C22DA70F0BC70474022D9795A7462B63F
:102CF000E3E70B791C06E5D5164B174E1C783378A5
:102D0000E4B2DBB29C420ED0144D01E0A3420AD0E3
:102D10000133282B28BF00230879E85CC0B2C871B2
:102D2000087D0728F2D9DBB2034933700B79180606
:102D300044BF7C23CB70C5E700B00640CC14FF1F16
:102D40006114FF1F8C14FF1F5C14FF1FD014FF1FA2
:102D50006014FF1FD414FF1FCD14FF1F6414FF1F46
:102D6000054A064B10781B78C0B2DBB2984238BFD8
:102D70004030C01A704700BFDC14FF1FDD14FF1F76
:102D800030B42B4B1A7994061FD52A48DA79037888
:102D9000294901333F2B0978C8BF00238B42D2B2A7
:102DA00003D0264CD9B2E2540170254A116861B1B2
:102DB000244A1278D2B2934236BFC2F140029B1A23
:102DC0009B18272BC4BF01230B70194AD378DBB2A1
:102DD000180611D45A060DD5154B1B795B0609D57B
:102DE000194B1A491B6800220A7003B11A70104B64
:102DF0002C22DA7030BC704711790906EAD51449E3
:102E000010480C780178C9B28C420DD04A1C272A90
:102E100084BF00210A460F4D054C98BFD1B2AA5C71
:102E2000D2B2E2710170D5E76C21D170D2E700BF58
:102E300000D00640DC14FF1FDD14FF1F0815FF1F24
:102E4000D814FF1F4915FF1F4C15FF1F4815FF1F02
:102E50005015FF1FE014FF1F054A064B10781B7822
:102E6000C0B2DBB2984238BF4030C01A704700BFD2
:102E70005815FF1F5915FF1FF0B4384B1A7912F07F
:102E8000300F2CD072B6997D01F0FF0200293DD0A1
:102E900062B6334F334938780D78334E1C46C0B292
:102EA000EDB2431C402BE17928BF0023AB4202F175
:102EB000FF32C9B21CBFF154184612F0FF02F0D124
:102EC0002A4B1B68C2B23A704BB1A84236BFC5F15B
:102ED0004005401B40192728C4BF01221A701F4912
:102EE000CA78D2B2150616D452060DD51B4B1B79E3
:102EF0005B0609D51E4B1F491B6800220A7003B1EF
:102F00001A70164B3C22DA70F0BC70474022D97917
:102F10005A7462B6E3E70B791C06E5D5164B174EDB
:102F20001C783378E4B2DBB29C420ED0144D01E041
:102F3000A3420AD00133402B28BF00230879E85C64
:102F4000C0B2C871087D0728F2D9DBB203493370DB
:102F50000B79180644BF7C23CB70C5E700A0064060
:102F60005815FF1F5915FF1F9C15FF1F5415FF1FF4
:102F7000E015FF1FDC15FF1FE415FF1FDD15FF1F08
:102F80005C15FF1F054A064B10781B78C0B2DBB2F8
:102F9000984238BF4030C01A704700BFEC15FF1F81
:102FA000ED15FF1F30B42C4B5A6894021FD52B48E7
:102FB000DA6803782A4901333F2B0978C8BF002318
:102FC0008B4204D0274CD2B2D9B2E2540170264AC7
:102FD000116861B1254A1278D2B2934236BFC2F16C
:102FE00040029B1A9B18272BC4BF01230B701A4A5F
:102FF0009368180202D55268110211D45A020DD5F5
:10300000154B5B685B0209D5194B1A491B680022F6
:103010000A7003B11A70184B00221A6030BC704756
:10302000164A124910780A78D2B290420DD0013275
:10303000272A84BF00200246114D074C98BFD0B20A
:10304000AA5CD2B2E2600870D8E70E480A4A0024AF
:10305000012104601160D1E700400C40EC15FF1F16
:10306000ED15FF1F1816FF1FE815FF1F5916FF1F4C
:103070005C16FF1F5816FF1F580188436016FF1F7C
:10308000F015FF1F5C01884310B584B072B6FDF7E0
:1030900073FF184A184B19491160702280211A7069
:1030A0001A46197013781B06FCD5154B1C68FDF7E2
:1030B0007DFF62B6134B9C429CBF04EB840464000A
:1030C0002046114C01A90A2200F020F801A920464F
:1030D000002311F8012B01333AB10A2B20F8022FFB
:1030E000F7D11623237004B010BD5B00DBB2237050
:1030F00004B010BD0400024000000240000007417F
:103100000C0002407F9698004408FF1FF0B44D1E4B
:103110002E46002400E00134B0FBF2F302FB130062
:10312000092800F130078ABF3730F8B2C0B206F87C
:10313000010F1846002BEED10A1953704CB11078CC
:1031400015F8016F28700133E01A834202F8016913
:10315000F5DB0846F0BC7047054A064B10781B7833
:10316000C0B2DBB2984238BF4030C01A704700BFCF
:103170006816FF1F6916FF1F30B42B4B1A7994068F
:103180001FD52A48DA790378294901333F2B09787A
:10319000C8BF00238B42D2B203D0264CD9B2E2542E
:1031A0000170254A116861B1244A1278D2B2934263
:1031B00036BFC2F140029B1A9B18272BC4BF0123C4
:1031C0000B70194AD378DBB2180611D45A060DD504
:1031D000154B1B795B0609D5194B1A491B68002250
:1031E0000A7003B11A70104B2C22DA7030BC704791
:1031F00011790906EAD5144910480C780178C9B24A
:103200008C420DD04A1C272A84BF00210A460F4D4C
:10321000054C98BFD1B2AA5CD2B2E2710170D5E779
:103220006C21D170D2E700BF00C006406816FF1FB6
:103230006916FF1F9416FF1F6416FF1FD516FF1F88
:10324000D816FF1FD416FF1FDC16FF1F6C16FF1FBA
:10325000704700BF704700BF81F0004102E000BF2F
:1032600083F0004330B54FEA41044FEA430594EA46
:10327000050F08BF90EA020F1FBF54EA000C55EA81
:10328000020C7FEA645C7FEA655C00F0E2804FEA52
:103290005454D4EB5555B8BF6D420CDD2C4480EA34
:1032A000020281EA030382EA000083EA010180EA64
:1032B000020281EA0303362D88BF30BD11F0004FB2
:1032C0004FEA01314FF4801C4CEA113102D04042E8
:1032D00061EB410113F0004F4FEA03334CEA133323
:1032E00002D0524263EB430394EA050F00F0A7803B
:1032F000A4F10104D5F1200E0DDB02FA0EFC22FA36
:1033000005F2801841F1000103FA0EF2801843FA29
:1033100005F359410EE0A5F120050EF1200E012A1A
:1033200003FA0EFC28BF4CF0020C43FA05F3C01858
:1033300051EBE37101F0004507D54FF0000EDCF1D1
:10334000000C7EEB00006EEB0101B1F5801F1BD37A
:10335000B1F5001F0CD349085FEA30004FEA3C0C7E
:1033600004F101044FEA445212F5800F80F09A8074
:10337000BCF1004F08BF5FEA500C50F1000041EB78
:10338000045141EA050130BD5FEA4C0C404141EB7C
:10339000010111F4801FA4F10104E9D191F0000FA3
:1033A00004BF01460020B1FA81F308BF2033A3F126
:1033B0000B03B3F120020CDA0C3208DD02F1140C1D
:1033C000C2F10C0201FA0CF021FA02F10CE002F158
:1033D0001402D8BFC2F1200C01FA02F120FA0CFC51
:1033E000DCBF41EA0C019040E41AA2BF01EB04519A
:1033F000294330BD6FEA04041F3C1CDA0C340EDC98
:1034000004F11404C4F1200220FA04F001FA02F3DA
:1034100040EA030021FA04F345EA030130BDC4F198
:103420000C04C4F1200220FA02F001FA04F340EA8D
:103430000300294630BD21FA04F0294630BD94F03E
:10344000000F83F4801306BF81F480110134013D25
:103450004EE77FEA645C18BF7FEA655C29D094EA96
:10346000050F08BF90EA020F05D054EA000C04BF14
:103470001946104630BD91EA030F1EBF00210020FF
:1034800030BD5FEA545C05D14000494128BF41F09E
:10349000004130BD14F580043CBF01F5801130BD02
:1034A00001F0004545F0FE4141F470014FF000008D
:1034B00030BD7FEA645C1ABF194610467FEA655C3E
:1034C0001CBF0B46024650EA013406BF52EA0335E0
:1034D00091EA030F41F4002130BD00BF90F0000FCE
:1034E00004BF0021704730B54FF4806404F132040A
:1034F0004FF000054FF0000150E700BF90F0000FC3
:1035000004BF0021704730B54FF4806404F13204E9
:1035100010F0004548BF40424FF000013EE700BFB9
:1035200042004FEAE2014FEA31014FEA02701FBF49
:1035300012F07F4393F07F4F81F06051704792F01B
:10354000000F14BF93F07F4F704730B54FF4607495
:1035500001F0004521F0004120E700BF50EA0102E0
:1035600008BF704730B54FF000050AE050EA01028D
:1035700008BF704730B511F0004502D5404261EBFD
:1035800041014FF4806404F132045FEA915C3FF43E
:10359000DCAE4FF003025FEADC0C18BF03325FEAD7
:1035A000DC0C18BF033202EBDC02C2F1200300FA8C
:1035B00003FC20FA02F001FA03FE40EA0E0021FAB1
:1035C00002F11444C1E600BF70B54FF0FF0C4CF49B
:1035D000E06C1CEA11541DBF1CEA135594EA0C0F51
:1035E00095EA0C0F00F0DEF82C4481EA030621EA8C
:1035F0004C5123EA4C5350EA013518BF52EA0335C7
:1036000041F4801143F4801338D0A0FB02CE4FF078
:103610000005E1FB02E506F00042E0FB03E54FF0A8
:103620000006E1FB03569CF0000F18BF4EF0010EA0
:10363000A4F1FF04B6F5007F64F5407404D25FEA9C
:103640004E0E6D4146EB060642EAC62141EA55514F
:103650004FEAC52040EA5E504FEACE2EB4F1FD0C91
:1036600088BFBCF5E06F1ED8BEF1004F08BF5FEA0F
:10367000500E50F1000041EB045170BD06F00046C1
:1036800046EA010140EA020081EA0301B4EB5C046E
:10369000C2BFD4EB0C0541EA045170BD41F4801166
:1036A0004FF0000E013C00F3AB8014F1360FDEBF8B
:1036B000002001F0004170BDC4F10004203C35DA67
:1036C0000C341BDC04F11404C4F1200500FA05F3EA
:1036D00020FA04F001FA05F240EA020001F000428B
:1036E00021F0004110EBD37021FA04F642EB060101
:1036F0005EEA430E08BF20EAD37070BDC4F10C042B
:10370000C4F1200500FA04F320FA05F001FA04F2EE
:1037100040EA020001F0004110EBD37041F10001DA
:103720005EEA430E08BF20EAD37070BDC4F12005E5
:1037300000FA05F24EEA020E20FA04F301FA05F24D
:1037400043EA020321FA04F001F0004121FA04F2F5
:1037500020EA020000EBD3705EEA430E08BF20EAC5
:10376000D37070BD94F0000F0FD101F000464000FF
:1037700041EB010111F4801F08BF013CF7D041EA81
:10378000060195F0000F18BF704703F00046520085
:1037900043EB030313F4801F08BF013DF7D043EA56
:1037A0000603704794EA0C0F0CEA135518BF95EA0C
:1037B0000C0F0CD050EA410618BF52EA4306D1D193
:1037C00081EA030101F000414FF0000070BD50EAB2
:1037D000410606BF1046194652EA430619D094EA3C
:1037E0000C0F02D150EA013613D195EA0C0F05D126
:1037F00052EA03361CBF104619460AD181EA03017A
:1038000001F0004141F0FE4141F470014FF0000031
:1038100070BD41F0FE4141F4780170BD70B54FF0CC
:10382000FF0C4CF4E06C1CEA11541DBF1CEA13554C
:1038300094EA0C0F95EA0C0F00F0A7F8A4EB05042E
:1038400081EA030E52EA03354FEA013100F0888025
:103850004FEA03334FF0805545EA131343EA1263EE
:103860004FEA022245EA111545EA10654FEA0026A3
:103870000EF000419D4208BF964244F1FD0404F55C
:10388000407402D25B084FEA3202B61A65EB0305B8
:103890005B084FEA32024FF480104FF4002CB6EB75
:1038A000020E75EB030E22BFB61A754640EA0C00F5
:1038B0005B084FEA3202B6EB020E75EB030E22BF35
:1038C000B61A754640EA5C005B084FEA3202B6EB76
:1038D000020E75EB030E22BFB61A754640EA9C0035
:1038E0005B084FEA3202B6EB020E75EB030E22BF05
:1038F000B61A754640EADC0055EA060E18D04FEAC3
:10390000051545EA16754FEA06164FEAC30343EA62
:1039100052734FEAC2025FEA1C1CC0D111F4801F2F
:103920000BD141EA00014FF000004FF0004CB6E728
:1039300011F4801F04BF01430020B4F1FD0C88BFC7
:10394000BCF5E06F3FF6AFAEB5EB030C04BFB6EBD2
:10395000020C5FEA500C50F1000041EB045170BDC5
:103960000EF0004E4EEA113114EB5C04C2BFD4EBF2
:103970000C0541EA045170BD41F480114FF0000E76
:10398000013C90E645EA060E8DE60CEA135594EAF2
:103990000C0F08BF95EA0C0F3FF43BAF94EA0C0FF5
:1039A0000AD150EA01347FF434AF95EA0C0F7FF46A
:1039B00025AF104619462CE795EA0C0F06D152EABE
:1039C00003353FF4FDAE1046194622E750EA4106A2
:1039D00018BF52EA43067FF4C5AE50EA41047FF4B3
:1039E0000DAF52EA43057FF4EBAE12E74FF0FF3C18
:1039F00006E000BF4FF0010C02E000BF4FF0010CE9
:103A00004DF804CD4FEA410C7FEA6C5C4FEA430C61
:103A100018BF7FEA6C5C1BD001B050EA410C0CBFB0
:103A200052EA430C91EA030F02BF90EA020F002012
:103A3000704710F1000F91EA030F58BF994208BF79
:103A400090422CBFD8176FEAE37040F00100704736
:103A50004FEA410C7FEA6C5C02D150EA013C07D18D
:103A60004FEA430C7FEA6C5CD6D152EA033CD3D0D8
:103A70005DF8040B704700BF8446104662468C46D2
:103A80001946634600E000BF01B5FFF7B7FF002805
:103A900048BF10F1000F01BD4DF808EDFFF7F4FF2E
:103AA0000CBF012000205DF808FB00BF4DF808EDB9
:103AB000FFF7EAFF34BF012000205DF808FB00BFDC
:103AC0004DF808EDFFF7E0FF94BF012000205DF8FE
:103AD00008FB00BF4DF808EDFFF7CEFF94BF0120B3
:103AE00000205DF808FB00BF4DF808EDFFF7C4FFAC
:103AF00034BF012000205DF808FB00BF4FEA410CF5
:103B00007FEA6C5C02D150EA013C0AD14FEA430CD7
:103B10007FEA6C5C02D152EA033C02D14FF0000014
:103B200070474FF0010070470B460146184600F001
:103B300001B800BF13460A460146022000F084BEC9
:103B4000014B1868704700BF880CFF1F70B50F4EFF
:103B50000F4D761BB61018BF002405D0013455F860
:103B6000043B9847A642F9D10A4E0B4D761B04F050
:103B700013FCB61018BF002406D0013455F8043BDE
:103B80009847A642F9D170BD70BD00BFA483000064
:103B9000A4830000B0830000A4830000024B014610
:103BA000186800F003B800BF880CFF1F2DE9F04F24
:103BB00001F10B05162D83B0064640F29F8035F0CB
:103BC000070500F1BF80A94200F2BC8000F06EFB47
:103BD000B5F5FC7FC0F09C826B0A00F0BA80042B24
:103BE00000F28381A80900F1390E4FEA4E03383004
:103BF000C44F07EB8303A3F108015C68A14207D11E
:103C0000ACE0002A80F2AC80E468A14200F0A6801B
:103C1000636823F003035A1B0F2AF2DDB9493C699C
:103C200001F1080E744500F0B381636823F00303CB
:103C30005A1B0F2A00F39981002AC1F814E0C1F839
:103C400010E080F29E80B3F5007F80F06781DB0892
:103C500003F1010C01229B1002FA03F34A6851F8A8
:103C60003C80C4F8088001EBCC091A43A9F1080391
:103C7000E3604A6041F83C40C8F80C4083100124DE
:103C80009C40944200F28A80144206D120F0030046
:103C90006400144200F10400FAD007EBC009CC46DE
:103CA0008046DCF80C108C4507D173E1002A80F2C5
:103CB0008181C9688C4500F06D814B6823F0030356
:103CC0005A1B0F2AF2DD0C46D1F80CC054F8088FAD
:103CD0004B1945F001054D6042F00101C8F80CC0D8
:103CE0003046CCF808807B613B61C3F80CE0C3F838
:103CF00008E059609A5000F0DBFA1FE0102921D843
:103D000000F0D4FA1025062302207E4F07EB830330
:103D1000A3F108025C68944200F045816368E168A1
:103D2000A56823F00303234430465A68E96042F053
:103D300001028D605A6000F0BBFA0834204603B0DF
:103D4000BDE8F08F00240C232046336003B0BDE8AB
:103D5000F08F80234FF0400E3F2049E770465DE72B
:103D60002344E1685A68A56842F00102E9603046E0
:103D70008D605A6000F09CFA0834204603B0BDE81C
:103D8000F08F234430465A6842F001025A6000F036
:103D90008FFA0834204603B0BDE8F08FBC68636832
:103DA00023F00308A84504D3C5EB08030F2B00F349
:103DB0008C80554BDFF860911A68D9F800300133D8
:103DC0002A4404EB080A00F0608102F580520F32A9
:103DD00022F47F6222F00F0211463046019200F079
:103DE00059FCB0F1FF3F8346019A00F058818245AB
:103DF00000F2FC80454B1968DA451144196000F067
:103E00005381D9F80000DFF810E101301BBFCAEB85
:103E10000B0A5144CEF800B019601BF0070100F006
:103E20001781C1F10800C1F58051834408315A441B
:103E3000C2F30B02C2EB010949463046019300F080
:103E400029FC431C019B00F03F81CBEB00024A445C
:103E500042F001021968C7F808B04944BC42CBF8E7
:103E600004201960DFF8A49016D0B8F10F0F40F2CB
:103E7000FD806268A8F10C0323F00703E01802F04C
:103E800001024FF0050E1A430F2B6260C0F804E0E8
:103E9000C0F808E000F21C811D4BBC681A68914212
:103EA00088BF19601B4B1A689142626888BF19600D
:103EB00022F003029542A2EB050301D80F2B04DC8C
:103EC000304600F0F5F9002438E7621943F00103A9
:103ED00045F0010565603046BA60536000F0E8F9CE
:103EE0000834204603B0BDE8F08F142B71D9542B51
:103EF00000F2A480280B00F16F0E4FEA4E036E30E3
:103F000076E600BFF80DFF1FE816FF1FEC16FF1F37
:103F1000E416FF1FE016FF1F0412FF1F5A0A042AAF
:103F20005ED9142A00F2B38002F15C0149005B32D1
:103F300007EB810C57F82110DFF8DC81ACF1080C9D
:103F40008C4500F088804A6822F00302934202D236
:103F500089688C45F7D1D1F80CC07A68C4F80CC0D8
:103F6000A160CCF80840CC6088E6631942F00107F4
:103F700045F00105656030464B610B61C3F80CE00C
:103F8000C3F808E05F609A50083400F091F9D5E674
:103F90004A6873E608F1010818F0030F0CF1080CE9
:103FA0007FF47FAE30E0DC68A34208BF02303FF40C
:103FB00035AEB3E60B440C465A68C96854F8085F3E
:103FC00042F001025A603046E9608D6000F070F9FD
:103FD000B4E603F15C0E03F15B004FEA4E0307E623
:103FE0009A0902F1390149003832A1E7BC424A4B33
:103FF0003FF400AF9C68626822F003025AE759F868
:104000000839994540F0828010F0030F00F1FF302D
:10401000F5D17B6823EA04037B6064009C423FF691
:10402000BDAE002C3FF4BAAE1C4240467FF435AE24
:1040300064001C4200F10400FAD02EE6B3F5AA7F1A
:1040400018D8E80B00F1780E4FEA4E037730CFE531
:104050004FF48051EBE60121D8F80430921001FAB8
:1040600002F21A43C8F80420614677E70123CBF82F
:10407000043025E740F25452934220D8A80C00F1B6
:104080007D0E4FEA4E037C30B2E51032A4E6542A8E
:1040900026D81A0B02F16F0149006E3248E7BC685E
:1040A000626822F0030205E7CAF30B0000287FF4E0
:1040B000A8AE4244BB6842F001025A60ECE6FE231F
:1040C0004FF07F0E7E2093E501224FF00009C1E6FC
:1040D00004F10801304600F07BFCD9F80010DBE663
:1040E000B2F5AA7F05D8DA0B02F1780149007732E0
:1040F0001EE740F254518A4205D89A0C02F17D0124
:1041000049007C3214E7FE217E2211E77B6884E7B8
:10411000E808431C5B00F8E5F80DFF1F82B049B1C9
:104120005AB16BB113780B601278101C18BF0120C4
:1041300002B0704701A9002AF3D1104602B07047BF
:104140006FF00100F4E700BF8842F0B50DD98B187D
:1041500098420AD28118002A51D09A1A13F8014DB8
:1041600001F8014D9342F9D1F0BD0F2A48D941EA37
:1041700000039B0746D100F1100401F1100315461E
:1041800053F8106C44F8106C53F80C6C44F80C6C39
:1041900053F8086C44F8086C103D53F8046C44F86C
:1041A000046C0F2D03F1100304F11004E8D8A2F100
:1041B000100323F00F0302F00F0E1033BEF1030FB4
:1041C0001944034421D91E1F0D467446043C55F87A
:1041D000047B46F8047F032CF8D8AEF1040424F0E5
:1041E000030404342344214402F0030262B1013B7E
:1041F0000A4411F8014B03F8014F8A42F9D1F0BD8E
:104200000346F3E70346F2E7F0BD7246EEE700BF70
:1042100070B4840746D0541E002A41D0CDB2034664
:1042200002E0621EE4B3144603F8015B9A07F8D17A
:10423000032C2ED9CDB245EA05250F2C45EA0545BC
:1042400019D903F110022646103E0F2E42F8105CD9
:1042500042F80C5C42F8085C42F8045C02F110027F
:10426000F2D8A4F1100222F00F0204F00F04103271
:10427000032C13440DD91E462246043A032A46F85D
:10428000045BFAD8221F22F003020432134404F024
:1042900003042CB1C9B21C4403F8011BA342FBD197
:1042A00070BC704714460346C2E700BF704700BFAA
:1042B000704700BF2DE9F04F174683B0002900F08A
:1042C000C1800E46814607F10B05FFF7EFFF56F858
:1042D00004EC162D2EF00304A6F1080840D8102295
:1042E0001546AF4241D8944275DAC94B996808EB3C
:1042F00004008842416800F0D98021F001030344A2
:104300005B68DB077DD51EF0010F35D03946484686
:10431000FFF74CFC0746E0B156F8043C23F00103DC
:104320004344A0F108029A4200F04481221F242A4B
:1043300000F23181132A00F20481034632461168EB
:1043400019605168596092689A603146484600F099
:104350003FFB4846FFF7ACFF384603B0BDE8F08F9F
:1043600025F00705002D2A46BBDA0C230020C9F8EA
:10437000003003B0BDE8F08F56F8083CC3EB080AE4
:10438000DAF8043023F0030C04EB0C039342BDDB9A
:104390005746DAF80C1057F8080F221F242AC1607C
:1043A000886000F21781132A40F212813168CAF83E
:1043B00008107168CAF80C101B2A00F22B8108360D
:1043C0000AF110023168116071685160B168916042
:1043D0003E461C46D046631B0F2B1DD8D8F8043030
:1043E00003F0010323434444C8F80430636843F0F6
:1043F000010363604846FFF75BFF304603B0BDE84A
:10440000F08F21F003012144914221DBC3688268CF
:104410000C46D3609A60DEE7D8F8042008EB05016B
:1044200002F00102154343F001020B44C8F80450A6
:104430004A605A6842F0010208315A60484600F06A
:10444000C7FAD7E7114603B0BDE8F04FFFF7AEBBA0
:104450001EF0010F7FF45AAF56F8083CC3EB080A70
:10446000DAF8043023F0030C01EB0C0E96458BDBDD
:10447000C36882685746D3609A6057F8081FDAF815
:104480000C30CB60221F242A996000F29980132AF5
:1044900062D93368CAF808307368CAF80C301B2A2E
:1044A00000F2A08008360AF1100356E021F0030B59
:1044B000A34405F11000834559DA1EF0010F7FF483
:1044C00025AF56F8081CC1EB080ADAF8041021F0F1
:1044D000030CE34458453FF757AF5746DAF80C1042
:1044E00057F8080F221F242AC160886000F2B480A8
:1044F000132A40F2A5803168CAF808107168CAF81A
:104500000C101B2A00F2AF8008360AF11002316845
:10451000116071685160B16891600AEB0501C5EBEB
:104520000B0242F0010299604A60DAF8043003F0AD
:1045300001031D434846CAF80450FFF7B9FE384648
:104540005CE733680360736843601B2A27D800F177
:10455000080306F10802F2E63B4632681A60726808
:104560005A60B2689A603E467446D04633E708EB1C
:104570000501C5EB0B0B4BF0010299604A6056F840
:10458000043C03F001031D43484646F8045CFFF772
:104590008FFE304632E73146FFF7D6FDD5E6B368E9
:1045A0008360F368C360242A28D000F1100306F169
:1045B0001002C4E650F8043C23F003031C440AE74D
:1045C000314638467446D046FFF7BEFD3E4602E708
:1045D0003A46F7E6314638461C46D046FFF7B4FD6A
:1045E0003E46F8E6B368CAF81030F368CAF81430EB
:1045F000242A1BD010360AF11803AEE73369036191
:104600007369436106F1180200F1180397E600BFD1
:10461000F80DFF1FB168CAF81010F168CAF814103D
:10462000242A0FD010360AF11802CBE63369CAF8F3
:1046300018307369CAF81C3018360AF120038CE769
:104640003A4664E73269CAF818207269CAF81C2031
:1046500018360AF12002B5E6314638460193FFF7D5
:1046600073FD019B59E7B168CAF81010F168CAF8E8
:104670001410242A03D010360AF1180247E73269D1
:10468000CAF818207269CAF81C2018360AF12002EC
:104690003DE700BF38B5074C0023054608462360B8
:1046A000FCF754FC431C00D038BD2368002BFBD022
:1046B0002B6038BD2817FF1FFFFFFFFFFFFFFFFF25
:1046C00090F800F06DE9024520F007016FF0000C52
:1046D00010F0070491F820F040F049804FF00004FA
:1046E0006FF00700D1E9002391F840F000F10800D5
:1046F00082FA4CF2A4FA8CF283FA4CF3A2FA8CF30D
:104700004BBBD1E9022382FA4CF200F10800A4FA73
:104710008CF283FA4CF3A2FA8CF3E3B9D1E90423C7
:1047200082FA4CF200F10800A4FA8CF283FA4CF3FE
:10473000A2FA8CF37BB9D1E9062301F1200182FAB8
:104740004CF200F10800A4FA8CF283FA4CF3A2FABE
:104750008CF3002BC6D0002A04BF04301A4612BACC
:10476000B2FA82F2FDE8024500EBD2007047D1E9CF
:10477000002304F00305C4F100004FEAC50514F05E
:10478000040F91F840F00CFA05F562EA05021CBF2F
:1047900063EA050362464FF00004A9E7F0B5ADF502
:1047A000057D04AD00930F4613464FF4007403AA31
:1047B00029460394064600F065FD88B1044602468A
:1047C0003946039B304600F029F8AC42039004D0F0
:1047D0003046214600F0FCF803980DF5057DF0BD4C
:1047E0004FF0FF30F9E700BF10B4044C13460A46FF
:1047F000014620685DF8044BFFF7D0BF880CFF1F0F
:1048000021B1FF2A04D80A7001207047084670477A
:104810008A2303604FF0FF30704700BF70B50D462C
:10482000084C114606461A46284600232360FEF728
:104830001BF8431C00D070BD2368002BFBD03360F5
:1048400070BD00BF2817FF1F2DE9F047254C2568D4
:10485000D5F848410646884692469946C4B36068F2
:104860001F2817DC431C76B104EB80050122C5F834
:1048700088A0D4F8881182401143022EC4F8881110
:10488000C5F808911ED00230636044F820800020F3
:10489000BDE8F087144B03B34FF4C870FFF77EF9FF
:1048A0000446D0B1D5F84831002780E88800C5F823
:1048B000484138460123C4F88871C4F88C71002E31
:1048C000E1D0D1E7D4F88C110A43C4F88C21DAE79F
:1048D00005F5A674C5F84841C1E74FF0FF30BDE8C3
:1048E000F08700BF0C8100009D3B0000024B13B11C
:1048F000024800F005B87047000000000D490000B4
:10490000002301461A461846FFF79EBF38B5074DEB
:10491000074C2C1BA41005D0013C55F8043D9847CA
:10492000002CF9D1BDE8384003F042BD0000000082
:1049300000000000F8B5234F0C460646FFF7B6FC12
:10494000BB685D6825F00305291B01F6EF7121F4B2
:104950007F6121F00F01A1F58054B4F5805F07DB82
:1049600000213046FFF796FEBB682B44984204D0E6
:104970003046FFF79DFC0020F8BD61423046FFF74E
:1049800089FE01300DD0104BBA6819682D1B45F017
:1049900001053046091B55601960FFF789FC0120AD
:1049A000F8BD00213046FFF775FEBA68831A0F2B59
:1049B000DEDD064C0449246843F00103001B53600C
:1049C0000860D5E7F80DFF1FEC16FF1F0412FF1F4C
:1049D000002945D02DE9F0410D468046FFF766FCE1
:1049E00055F8047C6A4927F00103A5F10804E21890
:1049F0008E685068B24220F0030062D0FE0750601B
:104A00000BD455F8087CE41B01F1080EA568754528
:104A10003B446FD0E768EF60BD6015186D68ED0727
:104A200042D543F001026260E350B3F5007F18D233
:104A3000DB085A1C4D6851F83270A76001209B10AA
:104A400000FA03F301EBC2001D430838E0604D603B
:104A500041F83240FC604046BDE8F041FFF728BC19
:104A600070475A0A042A53D89A0902F139077F007D
:104A700002F1380501EB870051F827204449083836
:104A800090424DD0516821F003018B4202D29268CE
:104A90009042F7D1D068E060A2608460D460404664
:104AA000BDE8F041FFF704BC95683A4FBD420344AE
:104AB0003FD0D068E86043F0010285606260E35057
:104AC000B3E7FF07034407D455F8082CA41A13448E
:104AD000A068E268C26090602F4A126843F001004B
:104AE000934260608C60B6D32C4B40461968FFF748
:104AF00021FFB0E711184968C90744D49168D2680A
:104B0000CA60034443F0010091606060E350A2E793
:104B1000142A17D802F15C077F0002F15B05A9E7B0
:104B2000AA104B68012505FA02F213434B600246B6
:104B3000B1E743F001024C610C61E560A560626081
:104B4000E35088E7542A06D81A0B02F16F077F005A
:104B500002F16E058EE7B2F5AA7F06D8DA0B02F1F4
:104B600078077F0002F1770584E740F254508242D3
:104B700006D89A0C02F17D077F0002F17C0579E7E7
:104B8000FE277E2576E743F001026260E35062E78C
:104B9000F80DFF1F000EFF1F0012FF1FE816FF1F7A
:104BA000044A054B1268506B002808BF1846F030C5
:104BB000704700BF880CFF1F8C0CFF1FFFFFFFFF1B
:104BC00001F0FF01102A2BDB10F0070F08D010F8BE
:104BD000013B013A8B422DD010F0070F42B3F6D1C2
:104BE000F0B441EA012141EA014122F007047FF0DB
:104BF00000070023F0E80256083C85EA010586EA32
:104C0000010685FA47F5A3FA87F586FA47F6A5FA6D
:104C100087F68EB9EED1F0BC01F0FF0102F0070279
:104C200032B110F8013B013A83EA010313B1F8D124
:104C30000020704701387047002D06BF3546033805
:104C4000073815F0010F07D1013015F4807F02BF3E
:104C5000013015F4C03F0130F0BC0138704700BF8F
:104C6000C36C70B505460C464BB153F8240080B1B7
:104C7000026843F8242000230361C36070BD212231
:104C8000042100F02FFBE86403460028EDD100204A
:104C900070BD012101FA04F6721D2846920000F051
:104CA00021FB0028F3D044608660E4E731B1C36C97
:104CB0004A6853F82200086043F82210704700BF8A
:104CC000F0B50C6983B00D46064601F1140E0027BD
:104CD000DEF8000081B202FB01310B0C000C02FB7C
:104CE000003389B2013701EB0341BC424EF8041B8B
:104CF0004FEA1343ECDC3BB1AA68944207DA05EBB8
:104D00008402013453612C61284603B0F0BD696808
:104D1000019301313046FFF7A3FF2A69023205F102
:104D20000C01074692000C30FDF7C2FDF26C696879
:104D3000019B52F82100286042F821503D46DEE7F1
:104D4000030C1B04B3B90004102310F07F4F04BF01
:104D50000002083310F0704F04BF0001043310F05C
:104D6000404F04BF80000233002807DB420003D419
:104D7000202070470023E8E7581C7047184670470A
:104D8000036813F0070207D0D90720D49A0720D46C
:104D90009B0803600220704799B209B91B0C1022CE
:104DA00013F0FF0F04BF1B0A0832190704BF1B09C9
:104DB0000432990704BF9B080232D90704D45B0868
:104DC00001D1202070470132036010467047002057
:104DD00070475B0803600120704700BF10B50C46A8
:104DE0000121FFF73DFF01224461026110BD00BFB8
:104DF0002DE9F04F0D691769BD4283B00C46164688
:104E000004DA2A4634463D460E461746A3686168D2
:104E100005EB07089845C8BF0131FFF721FF00F1F6
:104E2000140C0CEB8809CC45009005D26346002198
:104E300043F8041B9945FBD806F1140202EB870ADC
:104E400004F11403524503EB850E54D2CDF80490BF
:104E5000994652F8043B1FFA83FBBBF1000F20D0A8
:104E600000204F466646054600E01E4657F8044BB4
:104E70003068A1B283B20BFB0131240C000C4B193A
:104E80000BFB040000EB134099B2334641EA0041AA
:104E9000BE454FEA104543F8041BE6D8756052F84A
:104EA000043C5FEA134B20D0DCF80030674618461C
:104EB0004D46002100E037462C88000C0BFB040017
:104EC00001449CB23E4644EA014346F8043B7868FC
:104ED00055F8044B83B2240C0BFB043404EB114350
:104EE000AE454FEA1341E6D87B6092450CF1040CC5
:104EF000AFD8DDF80490B8F1000F0BDD59F8043C91
:104F0000A9F104091BB105E059F8043D13B9B8F142
:104F10000108F9D10098C0F8108003B0BDE8F08F07
:104F200012F003032DE9F041144607462ED10E4638
:104F3000A4101CD0BD6C95B3E3074FF0000806D455
:104F4000641014D02868A8B10546E307F8D52A46AE
:104F500031463846FFF74CFFB6B17268FB6C6410FF
:104F600053F82210316043F822600646EAD13046F9
:104F7000BDE8F0812A4629463846FFF739FF286008
:104F8000C0F800800546E0E70646D9E75A1E0B4DFB
:104F9000002355F82220FFF793FE0646C8E70121BB
:104FA0003846FFF75DFE40F2712101220023416186
:104FB00002610546B8640360BEE700BF18830000C5
:104FC0002DE9F04791460A698B684FEA691404EBB2
:104FD000020808F101059D420E468246496804DD3B
:104FE0005B009D4201F10101FADC5046FFF738FEFB
:104FF000002C00F1140238DD02EB8403002142F89A
:10500000041B9342FBD1346906F1140119F01F0906
:1050100001EB840E21D0C9F1200200240F6807FAA9
:1050200009FC4CEA04049C4643F8044B51F8044B39
:105030008E4524FA02F4F1D8CCF804400CB108F102
:105040000205DAF84C307268013D53F82210056110
:10505000316043F82260BDE8F087043B51F8042B2F
:1050600043F8042F8E45F9D8EBE71346CBE700BF92
:1050700002690B69D21A13D19B0014301431194400
:1050800010B4034401E098420CD253F8044D51F897
:10509000042D9442F7D009D301205DF8044B7047EA
:1050A0001046704700205DF8044B70474FF0FF300A
:1050B000F3E700BF2DE9F8430B690F4611695B1A4E
:1050C000002B904617D1890007F1140208F114054E
:1050D0005318294401E09A425ED253F8046D51F806
:1050E000044DA642F7D060D23B46144647464FF0E7
:1050F0000109984606E05DDB07F1140502F114048E
:105100004FF000097968FFF7ABFDD8F810303E6921
:10511000C0F80C9004EB830CA64605EB860700F163
:10512000140400235EF8041B55F8048B8AB213FAAA
:1051300088F3090C9A1AC1EB184303EB224392B28D
:1051400042EA0342F44544F8042B4FEA2343E9D8EA
:10515000AF4217D9A446294651F804EB13FA8EF250
:10516000131403EB1E4392B242EA03428F424CF8FF
:10517000042B4FEA2343EFD8ED433D4425F00305CC
:1051800004352C44043C22B954F8043D013E002B64
:10519000FAD00661BDE8F8830021FFF761FD012226
:1051A000002302614361BDE8F8832C464FF00009FB
:1051B0001546A7E73B4607F1140408F114054746D6
:1051C0004FF0010998469DE72DE9F04357EC106B2D
:1051D00083B0884601213C46C7F30A551746FFF7BE
:1051E0003FFDC4F3130481460DB144F480140194CF
:1051F0001EB302A840F8086DFFF7C2FD002834D1A5
:105200009DE80C00C9F81420002B0CBF01210221DD
:10521000C9F81830C9F81010DDB909EB8103A0F204
:105220003240C8F800001869FFF78AFDC0EB411052
:105230003860484603B0BDE8F08301A8FFF7A0FD41
:10524000019BC9F8143001212030C9F81010002D3D
:10525000E3D0A5F233450544C0F13500C8F800504D
:105260003860484603B0BDE8F0839DE80C00C0F10B
:10527000200103FA01F10A43C3400193C9F8142045
:10528000C2E700BF70B515469AB0146809B1002C8A
:105290001AD100244FF42272ADF80C20009404942B
:1052A0001A464FF6FF761E9B029469460594ADF8A8
:1052B0000E6000F0F9FF002811DB009B286000223F
:1052C0001A7004981AB070BD4FF4C1620091049135
:1052D000ADF80C20E4DA8B2303600020F2E7002015
:1052E000F0E700BF10B502FB01F1FEF75FFC0446DA
:1052F000D8B150F8042C22F00302043A242A18D81A
:10530000132A14D900231B2A0360436016D9242AC8
:105310008360C36011BF00F110020361436100F1BB
:1053200018020023136053609360204610BD0246AC
:10533000F7E70021FEF76CFF204610BD00F10802E0
:10534000EFE700BF02690B69934200F38D802DE9FE
:10535000F04F03F1FF3801F1140700F1140B57F877
:1053600028205BF828304FEA880483B00132B3FB71
:10537000F2F90BEB0403009407EB040A0193B9F173
:10538000000F39D00025BC46DE462B465CF8046B86
:10539000DEF80020B4B209FB0455360C2C0C09FBD6
:1053A0000644ADB25B1BA6B213FA82F3C6EB1246FB
:1053B00006EB23469BB243EA0643E2454EF8043B24
:1053C0004FEA14454FEA2643E0D2009B5BF80330D6
:1053D00093B9019C231F9B450CD254F8043C4BB954
:1053E000A4F1080302E01A68043B1AB99B4508F1CE
:1053F000FF38F8D3C0F810800446FFF739FE0028C4
:105400002EDB09F101095D46002357F8041B2868CB
:105410008AB29A1A090C12FA80F2C1EB104303EB1C
:10542000224391B241EA0341BA4545F8041B4FEAD1
:105430002343EAD25BF828200BEB880382B91A1FBA
:1054400093450BD253F8042C42B9083B02E01A688A
:10545000043B1AB99B4508F1FF38F8D3C4F8108013
:10546000484603B0BDE8F08F00207047FFFFFFFF04
:105470002DE9F04F57EC106B9BB0046C249D00910C
:1054800081460592039310EE10AABB4654B1426CBC
:10549000626001239340A3602146FFF707FC0023CD
:1054A000C9F84030BBF1000F5C4634DB00232B60B1
:1054B000A14B1A462340934216D0002200235046A7
:1054C0005946FEF7E9FA56465F46804648B3039AC6
:1054D00001231360259B002B00F0BE8097481860C5
:1054E00001381BB0BDE8F08F039A42F20F731360CE
:1054F000BAF1000F00F09A809148259B002BF0D064
:10550000C378002B00F0AA8000F10803259A1360ED
:105510001BB0BDE8F08F01232BF000442B60A346A5
:10552000C6E718AA19A947EC106B4846FFF74CFECE
:10553000250D0A9040F08380189D199E2E4406F296
:105540003243202B40F38882C3F1400306F212401D
:105550009C402AFA00F02043FDF7C0FF0123741E8F
:10556000A1F1F8710F930022764BFDF779FE6CA341
:10557000D3E90023FEF728F86BA3D3E90023FDF756
:1055800071FE064620460F46FDF7B8FF68A3D3E933
:105590000023FEF719F802460B4630463946FDF760
:1055A00061FE06460F4602F071FA002204900023C5
:1055B00030463946FEF77AFA002840F02882049EE9
:1055C000162E00F22182604B03EBC603D3E90001E3
:1055D00052465B46FEF788FA002800F04282731EAE
:1055E000049300230D932D1BB5F1010800F12A82CD
:1055F00000230793049B002BC0F21B8298440C935A
:1056000000230693009B092B2AD8052B40F34486E0
:10561000043B00930026009B023B032B00F22386F1
:10562000DFE813F02B03240236035004444B474AAF
:10563000C4F31300002814BF184610465DE7CBF3EF
:10564000130343F07F51A5F2FF345046CDF83C8060
:1056500041F44011189D86E73D4842E7C31C55E7D9
:105660000021C9F8441048460C460091FFF7F8FAAB
:105670004FF0FF3308930E9301230990C9F84000BF
:1056800005940B93199B002BC0F2D080049A0E2A2C
:1056900000F3CC802C4B03EBC20393ED007B059B06
:1056A000002B8DED007BC0F2FE8256465F46DDE9A1
:1056B00000AB304652465B463946FEF7AFF802F083
:1056C000E5F90446FDF71AFF52465B46FDF77CFFFD
:1056D0000B46024639463046FDF7C2FD099D04F1EE
:1056E00030032B70089B012B06460F4605F1010580
:1056F00061D00022174BFDF767FF0022002306460A
:105700000F46FEF7C9F900287DD1CDF81490DDF8D9
:1057100020A0DDF824B0DDE9008928E0AFF30080A7
:1057200061436F63A787D23FB3C8608B288AC63FA7
:10573000FB799F501344D33F0000F07F3583000076
:10574000308300000000F83F28820000248300001E
:105750003483000000002440FDF736FF00220023C0
:1057600006460F46FEF798F9002840F0AE83424601
:105770004B4630463946FEF751F802F087F90446A9
:10578000FDF7BCFE42464B46FDF71EFF02460B46A8
:1057900030463946FDF764FD04F1300E05F801EBA3
:1057A000CBEB050ED64506460F464FF00002AE4B3A
:1057B000D2D1DDF8149032463B4630463946FDF7EB
:1057C00051FD06460F4602460B46DDE90001FEF795
:1057D0006DF940B932463B46DDE90001FEF75CF960
:1057E00088B1E3070FD515F8014C099A6B1E04E048
:1057F0009A4200F0FC8313F8014D392C03F10105A6
:10580000F6D001341C700A994846FFF74FFA00227F
:10581000049B2A70039A01331360259B002B00F030
:105820009B8309981D601BB0BDE8F08F0B9A002A7E
:1058300000F00E81009A012A40F35782089B069AD5
:105840005F1EBA42C0F28B83D71B089B002BC0F2AD
:105850008084079D089B079A01211A4448460792B5
:105860009844FFF7BBFA064665B1B8F1000F09DDB1
:105870004545079A2B46A8BF4346D21A0792ED1A10
:10588000C3EB0808069B002B40F3F5820B9A002A15
:1058900000F00282002F00F0FF8131463A46484670
:1058A000FFF73EFB0A9A014606464846FFF7A0FA74
:1058B0000A9904464846FFF7F9F9069BDB1B069355
:1058C00040F0E98101214846FFF788FA0C9B0690D9
:1058D000002B00F0158201461A464846FFF720FBD0
:1058E000009B0690012B40F3F3820027069A136970
:1058F00002EB83031869FFF723FAC0F1200040444C
:1059000010F01F0000F0FA81C0F12003042B40F3D7
:10591000BD84C0F11C00079B0344079305448044E9
:10592000079B002B05DD21461A464846FFF748FB3A
:105930000446B8F1000F05DD424606994846FFF7D8
:105940003FFB06900D9B002B40F07A82089B002BBA
:1059500040F393820B9B002B40F0F481DDF824B0E0
:10596000089FDDF818805D4602E0FFF7A9F90446BC
:1059700041462046FFF7E6FC00F1300A05F801AB8E
:10598000CBEB0503BB424FF00A024FF00003214668
:105990004846EADB099B089A012AACBF9B180133F1
:1059A0001D464FF0000B214601224846FFF708FB39
:1059B00006990A90FFF75CFB002840F3058315F871
:1059C000012C09996B1E04E08B4200F0748213F8DD
:1059D000012D392A03F10105F6D001321A7006991A
:1059E0004846FFF763F9002E3FF40DAFBBF1000FFF
:1059F00005D0B34503D059464846FFF757F931461D
:105A00004846FFF753F9FEE601230D93EBE5DDF879
:105A100010804046FDF772FD02460B46304639467F
:105A2000FEF73AF800287FF4CAAD08F1FF3304937B
:105A3000C5E5079A049BD21A5B420693002307929E
:105A40000C93DFE5C8F1000307934FF00008D1E5A0
:105A5000069F079D0B9E07E7C3F120040AFA04F096
:105A60007AE50D90BFE500BF0000244000230B93B2
:105A7000049B059A13440E930133002B089340F3C3
:105A80007D82089C25460021172DC9F844100BD9AA
:105A9000012204235B0003F11400A842114602F125
:105AA0000102F7D9C9F844104846FFF7D9F80E2C7F
:105AB0000990C9F840003FF6E5AD002E3FF4E2AD95
:105AC00004990029CDE910AB40F39A82904B01F084
:105AD0000F020E1103EBC203F006D3E9004540F1BB
